{
  "contractName": "sample",
  "abi": [
    {
      "constant": true,
      "inputs": [],
      "name": "id",
      "outputs": [
        {
          "name": "",
          "type": "uint256"
        }
      ],
      "payable": false,
      "stateMutability": "view",
      "type": "function"
    },
    {
      "constant": false,
      "inputs": [
        {
          "name": "_id",
          "type": "uint256"
        }
      ],
      "name": "setId",
      "outputs": [],
      "payable": false,
      "stateMutability": "nonpayable",
      "type": "function"
    },
    {
      "constant": true,
      "inputs": [],
      "name": "getId",
      "outputs": [
        {
          "name": "",
          "type": "uint256"
        }
      ],
      "payable": false,
      "stateMutability": "view",
      "type": "function"
    }
  ],
  "bytecode": "0x608060405234801561001057600080fd5b5060e18061001f6000396000f30060806040526004361060525763ffffffff7c01000000000000000000000000000000000000000000000000000000006000350416635d1ca63181146057578063af640d0f14607b578063d0e0ba9514608d575b600080fd5b348015606257600080fd5b50606960a4565b60408051918252519081900360200190f35b348015608657600080fd5b50606960aa565b348015609857600080fd5b5060a260043560b0565b005b60005490565b60005481565b6000555600a165627a7a723058200e7d73a0d98aa891ebe2ff82bd462871063b6746f071b19a7369ea04d41288de0029",
  "source": "pragma solidity^0.4.21;\n\ncontract sample {\n    uint public id;\n\n    function setId(uint _id) public {\n        id = _id;\n    }\n\n    function getId() public view returns (uint) {\n        return id;\n    }\n}",
  "sourcePath": "/home/liyuankun/learn/sampleContract/contracts/sample.sol",
  "compiler": {
    "name": "solc",
    "version": "0.4.24+commit.e67f0147.Emscripten.clang"
  },
  "schemaVersion": "2.0.1",
  "updatedAt": "2018-08-27T09:30:55.413Z"
}